{"abi":[{"type":"function","name":"activeDisputeId","inputs":[],"outputs":[{"name":"","type":"uint256","internalType":"uint256"}],"stateMutability":"view"},{"type":"function","name":"agreement","inputs":[],"outputs":[{"name":"propertyId","type":"uint256","internalType":"uint256"},{"name":"landlord","type":"address","internalType":"address"},{"name":"tenant","type":"address","internalType":"address"},{"name":"monthlyRent","type":"uint256","internalType":"uint256"},{"name":"securityDeposit","type":"uint256","internalType":"uint256"},{"name":"startDate","type":"uint256","internalType":"uint256"},{"name":"endDate","type":"uint256","internalType":"uint256"},{"name":"duration","type":"uint256","internalType":"uint256"},{"name":"status","type":"uint8","internalType":"enum RentalAgreement.AgreementStatus"},{"name":"depositAmount","type":"uint256","internalType":"uint256"},{"name":"totalPaid","type":"uint256","internalType":"uint256"},{"name":"paymentsMade","type":"uint256","internalType":"uint256"},{"name":"paymentsMissed","type":"uint256","internalType":"uint256"},{"name":"landlordSigned","type":"bool","internalType":"bool"},{"name":"tenantSigned","type":"bool","internalType":"bool"}],"stateMutability":"view"},{"type":"function","name":"applyDisputeResolution","inputs":[{"name":"disputeId","type":"uint256","internalType":"uint256"},{"name":"favorTenant","type":"bool","internalType":"bool"}],"outputs":[],"stateMutability":"nonpayable"},{"type":"function","name":"cancel","inputs":[],"outputs":[],"stateMutability":"nonpayable"},{"type":"function","name":"checkAutoTerminate","inputs":[],"outputs":[],"stateMutability":"nonpayable"},{"type":"function","name":"disputeResolver","inputs":[],"outputs":[{"name":"","type":"address","internalType":"address"}],"stateMutability":"view"},{"type":"function","name":"factory","inputs":[],"outputs":[{"name":"","type":"address","internalType":"address"}],"stateMutability":"view"},{"type":"function","name":"getAgreementDetails","inputs":[],"outputs":[{"name":"","type":"tuple","internalType":"struct RentalAgreement.Agreement","components":[{"name":"propertyId","type":"uint256","internalType":"uint256"},{"name":"landlord","type":"address","internalType":"address"},{"name":"tenant","type":"address","internalType":"address"},{"name":"monthlyRent","type":"uint256","internalType":"uint256"},{"name":"securityDeposit","type":"uint256","internalType":"uint256"},{"name":"startDate","type":"uint256","internalType":"uint256"},{"name":"endDate","type":"uint256","internalType":"uint256"},{"name":"duration","type":"uint256","internalType":"uint256"},{"name":"status","type":"uint8","internalType":"enum RentalAgreement.AgreementStatus"},{"name":"depositAmount","type":"uint256","internalType":"uint256"},{"name":"totalPaid","type":"uint256","internalType":"uint256"},{"name":"paymentsMade","type":"uint256","internalType":"uint256"},{"name":"paymentsMissed","type":"uint256","internalType":"uint256"},{"name":"landlordSigned","type":"bool","internalType":"bool"},{"name":"tenantSigned","type":"bool","internalType":"bool"}]}],"stateMutability":"view"},{"type":"function","name":"getAgreementProgress","inputs":[],"outputs":[{"name":"","type":"uint256","internalType":"uint256"}],"stateMutability":"view"},{"type":"function","name":"getDaysOverdue","inputs":[],"outputs":[{"name":"","type":"uint256","internalType":"uint256"}],"stateMutability":"view"},{"type":"function","name":"getPaymentSuccessRate","inputs":[],"outputs":[{"name":"","type":"uint256","internalType":"uint256"}],"stateMutability":"view"},{"type":"function","name":"initialize","inputs":[{"name":"_propertyId","type":"uint256","internalType":"uint256"},{"name":"_landlord","type":"address","internalType":"address"},{"name":"_tenant","type":"address","internalType":"address"},{"name":"_monthlyRent","type":"uint256","internalType":"uint256"},{"name":"_securityDeposit","type":"uint256","internalType":"uint256"},{"name":"_duration","type":"uint256","internalType":"uint256"},{"name":"_propertyRegistry","type":"address","internalType":"address"},{"name":"_tenantPassport","type":"address","internalType":"address"},{"name":"_factory","type":"address","internalType":"address"},{"name":"_disputeResolver","type":"address","internalType":"address"},{"name":"_usdt","type":"address","internalType":"address"},{"name":"_vault","type":"address","internalType":"address"}],"outputs":[],"stateMutability":"nonpayable"},{"type":"function","name":"isPaymentOverdue","inputs":[],"outputs":[{"name":"","type":"bool","internalType":"bool"}],"stateMutability":"view"},{"type":"function","name":"lastPaymentDate","inputs":[],"outputs":[{"name":"","type":"uint256","internalType":"uint256"}],"stateMutability":"view"},{"type":"function","name":"nextPaymentDue","inputs":[],"outputs":[{"name":"","type":"uint256","internalType":"uint256"}],"stateMutability":"view"},{"type":"function","name":"payRent","inputs":[],"outputs":[],"stateMutability":"nonpayable"},{"type":"function","name":"paySecurityDeposit","inputs":[],"outputs":[],"stateMutability":"nonpayable"},{"type":"function","name":"paymentsLockedByDispute","inputs":[],"outputs":[{"name":"","type":"bool","internalType":"bool"}],"stateMutability":"view"},{"type":"function","name":"propertyRegistry","inputs":[],"outputs":[{"name":"","type":"address","internalType":"address"}],"stateMutability":"view"},{"type":"function","name":"raiseDispute","inputs":[{"name":"reasonCode","type":"uint8","internalType":"uint8"},{"name":"evidenceURI","type":"string","internalType":"string"},{"name":"amountInDispute","type":"uint256","internalType":"uint256"}],"outputs":[],"stateMutability":"payable"},{"type":"function","name":"signAsLandlord","inputs":[],"outputs":[],"stateMutability":"nonpayable"},{"type":"function","name":"signAsTenant","inputs":[],"outputs":[],"stateMutability":"nonpayable"},{"type":"function","name":"tenantPassport","inputs":[],"outputs":[{"name":"","type":"address","internalType":"address"}],"stateMutability":"view"},{"type":"function","name":"terminateAgreement","inputs":[{"name":"reason","type":"string","internalType":"string"}],"outputs":[],"stateMutability":"nonpayable"},{"type":"function","name":"terminateEarly","inputs":[{"name":"reason","type":"string","internalType":"string"}],"outputs":[],"stateMutability":"nonpayable"},{"type":"function","name":"usdt","inputs":[],"outputs":[{"name":"","type":"address","internalType":"contract IERC20"}],"stateMutability":"view"},{"type":"function","name":"vault","inputs":[],"outputs":[{"name":"","type":"address","internalType":"contract IRoomFiVault"}],"stateMutability":"view"},{"type":"event","name":"AgreementActivated","inputs":[{"name":"startDate","type":"uint256","indexed":false,"internalType":"uint256"},{"name":"endDate","type":"uint256","indexed":false,"internalType":"uint256"}],"anonymous":false},{"type":"event","name":"AgreementAutoTerminated","inputs":[{"name":"tenant","type":"address","indexed":true,"internalType":"address"},{"name":"reason","type":"string","indexed":false,"internalType":"string"}],"anonymous":false},{"type":"event","name":"AgreementCancelled","inputs":[{"name":"canceller","type":"address","indexed":true,"internalType":"address"},{"name":"timestamp","type":"uint256","indexed":false,"internalType":"uint256"}],"anonymous":false},{"type":"event","name":"AgreementCompleted","inputs":[{"name":"timestamp","type":"uint256","indexed":false,"internalType":"uint256"}],"anonymous":false},{"type":"event","name":"AgreementSigned","inputs":[{"name":"signer","type":"address","indexed":true,"internalType":"address"},{"name":"isLandlord","type":"bool","indexed":false,"internalType":"bool"}],"anonymous":false},{"type":"event","name":"AgreementTerminated","inputs":[{"name":"terminator","type":"address","indexed":true,"internalType":"address"},{"name":"reason","type":"string","indexed":false,"internalType":"string"},{"name":"penalty","type":"uint256","indexed":false,"internalType":"uint256"}],"anonymous":false},{"type":"event","name":"DepositPaid","inputs":[{"name":"tenant","type":"address","indexed":true,"internalType":"address"},{"name":"amount","type":"uint256","indexed":false,"internalType":"uint256"}],"anonymous":false},{"type":"event","name":"DepositReturned","inputs":[{"name":"tenant","type":"address","indexed":true,"internalType":"address"},{"name":"principal","type":"uint256","indexed":false,"internalType":"uint256"},{"name":"yieldEarned","type":"uint256","indexed":false,"internalType":"uint256"}],"anonymous":false},{"type":"event","name":"DisputeRaised","inputs":[{"name":"initiator","type":"address","indexed":true,"internalType":"address"},{"name":"reason","type":"string","indexed":false,"internalType":"string"}],"anonymous":false},{"type":"event","name":"RentPaid","inputs":[{"name":"month","type":"uint256","indexed":true,"internalType":"uint256"},{"name":"amount","type":"uint256","indexed":false,"internalType":"uint256"},{"name":"timestamp","type":"uint256","indexed":false,"internalType":"uint256"}],"anonymous":false},{"type":"event","name":"VaultWithdrawFailed","inputs":[{"name":"expected","type":"uint256","indexed":false,"internalType":"uint256"},{"name":"actual","type":"uint256","indexed":false,"internalType":"uint256"}],"anonymous":false},{"type":"error","name":"ReentrancyGuardReentrantCall","inputs":[]},{"type":"error","name":"SafeERC20FailedOperation","inputs":[{"name":"token","type":"address","internalType":"address"}]}],"bytecode":{"object":"0x6080806040523460195760015f55612979908161001e8239f35b5f80fdfe6080806040526004361015610012575f80fd5b5f905f3560e01c908163178054071461235a575080631ecbf7051461234057806326b703a714612318578063289b5086146122475780632f48ab7d1461221f57806333c4e60414611ed757806342c63dae14611cee57806347b3f24214611cd05780635d696d2314611cb557806362d0c2aa1461191d57806373e5be31146118775780637aeabb39146118595780637db3a946146117925780638eccc1cd14611486578063a0e40c6c146111c7578063a709c4fe14610c3b578063b419857014610c1d578063b4bd778414610a3e578063b4bd8de414610a1b578063bc831ade146107cf578063c45a0155146107a6578063df99a76614610783578063e8b1173014610442578063ea8a1af0146101f5578063f5a3f4af146101cc578063fb839f00146101725763fbfa77cf14610147575f80fd5b3461016f578060031936011261016f576014546040516001600160a01b039091168152602090f35b80fd5b503461016f578060031936011261016f5760165442118061019b575b6020906040519015158152f35b5060ff600954169060068210156101b8575060016020911461018e565b634e487b7160e01b81526021600452602490fd5b503461016f578060031936011261016f576012546040516001600160a01b039091168152602090f35b503461016f578060031936011261016f5761020e612806565b60ff60095416600681101561042e576102279015612493565b6002546001600160a01b03163314801561041a575b8015610406575b156103d157600560ff19600954161760095580600a5480610293575b506040514281527ffab2b7f82959aa58a83804666a6c0eb98ef4ec938a314db9f0c72bfbb37f05ae60203392a26001815580f35b60145460408051627b8a6760e11b815260048101939093523060248401529192839160449183916001600160a01b03165af182918161039f575b5061037d57506013546040516370a0823160e01b81523060048201526001600160a01b0390911690602081602481855afa90811561037257839161033c575b508061031d575b50505b805f61025f565b600354610335926001600160a01b0390911690612824565b5f80610313565b90506020813d60201161036a575b816103576020938361253e565b8101031261036657515f61030c565b5f80fd5b3d915061034a565b6040513d85823e3d90fd5b60135460035461039a92916001600160a01b039182169116612824565b610316565b6103c291925060403d6040116103ca575b6103ba818361253e565b810190612560565b50905f6102cd565b503d6103b0565b60405162461bcd60e51b815260206004820152600d60248201526c4e6f206175746f72697a61646f60981b6044820152606490fd5b506011546001600160a01b03163314610243565b506003546001600160a01b0316331461023c565b634e487b7160e01b82526021600452602482fd5b503461016f5761018036600319011261016f576024356001600160a01b0381169081900361077b576044356001600160a01b038116929083900361016f5760c4356001600160a01b0381169081900361077b5760e4356001600160a01b0381169081900361077757610104356001600160a01b038116929083900361077f57610124356001600160a01b038116949085900361016f57610144356001600160a01b038116969087900361077b57610164356001600160a01b03811698908990036107775760ff60185460081c1661073c5787156107005788156106c35782916040519161052e8361250d565b600435835260208301918252604083019081526060830160643581528460808501608435815260a0860182815260c087019083825260e088019260a4358452846101008a01526101208901958587526101408a01978689526101608b0199878b526101808c019b888d526101a081019d8e526101c081019e8f525160015560018060a01b039051166001600160601b0360a01b600254161760025560018060a01b039051166001600160601b0360a01b600354161760035551600455516005555160065551600755516008555060ff196009541660095551600a5551600b5551600c5551600d5551151560ff8019600e5416911617600e5551151561ff00600e549160081b169061ff00191617600e556001600160601b0360a01b600f541617600f556001600160601b0360a01b60105416176010556001600160601b0360a01b60115416176011556001600160601b0360a01b60125416176012556001600160601b0360a01b60135416176013556001600160601b0360a01b601454161760145561010061ff001960185416176018555f80f35b60405162461bcd60e51b8152602060048201526015602482015274496e76616c6964207661756c74206164647265737360581b6044820152606490fd5b60405162461bcd60e51b8152602060048201526014602482015273496e76616c69642055534454206164647265737360601b6044820152606490fd5b60405162461bcd60e51b8152602060048201526013602482015272105b1c9958591e481a5b9a5d1a585b1a5e9959606a1b6044820152606490fd5b8280fd5b5080fd5b8380fd5b503461016f578060031936011261016f57602060ff601854166040519015158152f35b503461016f578060031936011261016f576011546040516001600160a01b039091168152602090f35b503461016f57602036600319011261016f5760043567ffffffffffffffff811161077b5761080190369060040161237d565b61080c929192612806565b61081d60ff60185460081c16612455565b6003546001600160a01b031633148015610a07575b61083b90612664565b60ff6009541660068110156109f35760016108569114612493565b610868600360ff196009541617600955565b600a5490829060018060a01b03600354163314806109e8575b610990575b9083945f5160206129245f395f51905f528286946108ab6040519283923396846126bc565b0390a28015908115610953575b5050508015908115610917575b82610910818060018060a01b036011541660405182602082019163b568e6df60e01b8352336024820152602481526108fe60448261253e565b51925af161090a612583565b506125c2565b6001815580f35b82809291819260018060a01b036003541690839061094a575bf11561093e57805f806108c5565b604051903d90823e3d90fd5b506108fc610930565b82809291819260018060a01b0360025416908390610987575bf11561097a57815f806108b8565b50604051903d90823e3d90fd5b506108fc61096c565b91905060148102818104601414821517156109d45783945f5160206129245f395f51905f52859360646109c79404938480926123b8565b9593509350509450610886565b634e487b7160e01b84526011600452602484fd5b50600d541515610881565b634e487b7160e01b83526021600452602483fd5b506002546001600160a01b03163314610832565b503461016f578060031936011261016f576020610a366126e7565b604051908152f35b503461016f578060031936011261016f57806101c0604051610a5f8161250d565b8281528260208201528260408201528260608201528260808201528260a08201528260c08201528260e08201528261010082015282610120820152826101408201528261016082015282610180820152826101a08201520152604051610ac48161250d565b600154815260018060a01b0360025416916020820192835260018060a01b03600354169060408301918252600454906060840191825260055490608085019182526006549060a086019182526007549060c0870191825260085460e0880190815260ff6009541661010089019260068210156101b857508252600a54926101208901938452600b54946101408a01958652600c54966101608b01978852600d54986101808c01998a52600e549b8c9b6101a082019c60ff1615158d526101c08201809e60081c60ff16151590526040519e8f92518352600160a01b600190039051166020830152600160a01b6001900390511690604001525160608d01525160808c01525160a08b01525160c08a01525160e0890152516101008801610be9916123ab565b516101208701525161014086015251610160850152516101808401525115156101a08301525115156101c08201526101e090f35b503461016f578060031936011261016f576020601654604051908152f35b503461016f578060031936011261016f57610c54612806565b601854610c6660ff8260081c16612455565b610c7b60018060a01b0360035416331461260e565b60ff6009541660068110156109f35790610c99600160ff9314612493565b166111825760045490601654421191605581028181046055148215171561116e576064900492610cc984836123b8565b93610cd683600b54612576565b600b55610ce4600c546126d9565b80600c554260155562278d00420180421161115a57610d709286979285610d5693601655611147575b7fa62c35dfc0ff11d3713608ebcdc5c5d1952c7702620f2c46c22950f7b70d579760408051898152426020820152a26013546002546001600160a01b0390811691339116612867565b6013546011546001600160a01b0390811691339116612867565b60105460035460405163232eadf960e21b81526001600160a01b039182166004820152929116602083602481845afa92831561113c578593611105575b50803b15611101578492836064926040519687958694638a74f06f60e01b8652600486015215602485015260448401525af18015610fc8576110ec575b5050600754421015610dfd576001815580f35b600260ff196009541617600955600a547f5a098ab2367201784eb2ad9b7e2f0d916557002385b83ddcc19293f40c4e0ed06020604051428152a160145460408051627b8a6760e11b815260048101849052306024820152918290604490829087906001600160a01b03165af19081849185936110c9575b506110615750506013546040516370a0823160e01b8152306004820152906001600160a01b0316602082602481845afa918215611056578492611022575b50828210610fd7575050601354600354610eda9183916001600160a01b039081169116612824565b7f9794db68af033346a63dbc4509364afc3a23201eced8a4f3bc64d029abfacc65604060018060a01b0360035416928151908152846020820152a25b600f5460015482916001600160a01b031690813b15610fd357829160c4839260405194859384926347dd297360e01b84526004840152600160248401528160448401526050606484015260506084840152605060a48401525af18015610fc857610fb3575b5080610fae9160018060a01b0360115416604051826020820191631b85d37b60e21b8352600481526108fe60248261253e565b610910565b81610fbd9161253e565b61016f57805f610f7b565b6040513d84823e3d90fd5b5050fd5b91815f5160206129045f395f51905f529381604094611003575b505082519182526020820152a1610f16565b60035461101b926001600160a01b0390911690612824565b5f81610ff1565b9091506020813d60201161104e575b8161103e6020938361253e565b810103126103665751905f610eb2565b3d9150611031565b6040513d86823e3d90fd5b819250806110ad6110957f9794db68af033346a63dbc4509364afc3a23201eced8a4f3bc64d029abfacc6594604094612576565b6013546003546001600160a01b039081169116612824565b60018060a01b03600354169382519182526020820152a2610f16565b9092506110e5915060403d6040116103ca576103ba818361253e565b915f610e74565b816110f69161253e565b61016f57805f610dea565b8480fd5b945091506020843d602011611134575b816111226020938361253e565b8101031261036657849351915f610dad565b3d9150611115565b6040513d87823e3d90fd5b611152600d546126d9565b600d55610d0d565b634e487b7160e01b86526011600452602486fd5b634e487b7160e01b83526011600452602483fd5b60405162461bcd60e51b815260206004820152601a60248201527f5061796d656e7473206c6f636b656420627920646973707574650000000000006044820152606490fd5b50606036600319011261016f5760043560ff811680910361077b5760243567ffffffffffffffff81116107775761120290369060040161237d565b9161120b612806565b61121c60ff60185460081c16612455565b6003546001600160a01b031633148015611472575b61123a90612664565b60ff60095416600681101561145e5760016112559114612493565b601754611420576012546001600160a01b0316156113db57838091600460ff196009541617600955600160ff19601854161760185560018060a01b036003541680331490815f146113d557506002546001600160a01b0316905b601254604051633f840a3360e11b602082019081523060248301526001600160a01b039485166044830152606482019590955260c06084820152921692919061131e90829061130260e483018b8b61269c565b9060443560a484015260c483015203601f19810183528261253e565b519134905af161132c612583565b90156113905760208151918180820193849201010312610366577f28b099eb575e23e32becd7c30dc8f9b2f98e370cdbf9841ea3338d9000402a25916113869151601755604051918291602083523395602084019161269c565b0390a26001815580f35b60405162461bcd60e51b815260206004820152601860248201527f4661696c656420746f20637265617465206469737075746500000000000000006044820152606490fd5b906112af565b60405162461bcd60e51b815260206004820152601e60248201527f446973707574655265736f6c766572206e6f7420636f6e6669677572656400006044820152606490fd5b60405162461bcd60e51b81526020600482015260166024820152754469737075746520616c72656164792061637469766560501b6044820152606490fd5b634e487b7160e01b85526021600452602485fd5b506002546001600160a01b03163314611231565b503461016f578060031936011261016f5760ff60095416600681101561042e5760010361175f576016546276a700810180911161174b5742116114c65780f35b6114d8600360ff196009541617600955565b601454600a5460408051627b8a6760e11b8152600481019290925230602483015290918290604490829086906001600160a01b03165af18083928492611727575b506116f85750506013546040516370a0823160e01b81523060048201526001600160a01b0390911690602081602481855afa9081156103725783916116c6575b50806116a7575b50505b60105460035460405163232eadf960e21b81526001600160a01b0391821660048201529160209183916024918391165afa908115610fc8578291611675575b5081805b6003811061160b5750505060018060a01b03600354167f2e142c502ad848a15470dd51aad94b804282c65e79b56508208155f4f9fdb176606060405160208152601160208201527039302b20646961732073696e207061676f60781b6040820152a280f35b6010546001600160a01b0316803b1561077757828091606460405180948193638a74f06f60e01b83528960048401528160248401528160448401525af1908115610372578391611660575b50506001016115a6565b8161166a9161253e565b61077b57815f611656565b90506020813d60201161169f575b816116906020938361253e565b8101031261036657515f6115a2565b3d9150611683565b6002546116bf926001600160a01b0390911690612824565b5f80611560565b90506020813d6020116116f0575b816116e16020938361253e565b8101031261036657515f611559565b3d91506116d4565b601354600254611722936001600160a01b0392831693929091169161171c91612576565b91612824565b611563565b909250611743915060403d6040116103ca576103ba818361253e565b90915f611519565b634e487b7160e01b82526011600452602482fd5b60405162461bcd60e51b815260206004820152600b60248201526a536f6c6f2041435449564560a81b6044820152606490fd5b503461016f578060031936011261016f57600154600160a01b6001900360025416600160a01b600190036003541660045460055460065460075460085460095460ff1691600a5493600b5495600c5497600d5499600e549b604051809e81526020015260408d015260608c015260808b015260a08a015260c089015260e08801526101008701611821916123ab565b61012086015261014085015261016084015261018083015260ff811615156101a083015260081c60ff1615156101c08201526101e090f35b503461016f578060031936011261016f576020601554604051908152f35b503461016f578060031936011261016f5761189960ff60185460081c16612455565b6118ae60018060a01b0360035416331461260e565b60ff60095416600681101561042e576118c79015612493565b610100600e546118dd60ff8260081c16156124d0565b61ff00191617600e556040518181527ff28696c0013980f1a2e21252780330dbc380273e8a976b26173a775898db12b560203392a261191a612720565b80f35b503461016f57602036600319011261016f5760043567ffffffffffffffff811161077b5761194f90369060040161237d565b611957612806565b61196860ff60185460081c16612455565b6003546001600160a01b031633148015611ca1575b61198690612664565b60ff600954166006811015611c8d5760016119a19114612493565b62278d006119b260075442906123b8565b04839080611c3f575b506119ce600360ff196009541617600955565b601454600a5460408051627b8a6760e11b8152600481019290925230602483015290918290604490829089906001600160a01b03165af18086928792611c1b575b50611b335750506013546040516370a0823160e01b815230600482015292906001600160a01b0316602084602481845afa938415611b28578694611af3575b506040845f5160206129045f395f51905f5292815f5160206129245f395f51905f5297611ad4575b5050600a549082519182526020820152a15b611a996040519283923396846126bc565b0390a2610910818060018060a01b036011541660405182602082019163b568e6df60e01b8352336024820152602481526108fe60448261253e565b600354611aec926001600160a01b0390911690612824565b5f81611a76565b93506020843d602011611b20575b81611b0e6020938361253e565b81010312610366579251926040611a4e565b3d9150611b01565b6040513d88823e3d90fd5b6003545f5160206129245f395f51905f52949291906001600160a01b0316338103611bd45750818411611bb057611b8d9161171c60018060a01b036013541692611b888760018060a01b0360035416946123b8565b612576565b601354600254611bab9184916001600160a01b039081169116612824565b611a88565b601354600254611bab936001600160a01b0392831693929091169161171c91612576565b601354611bf0936001600160a01b039091169261171c91612576565b8115611a8857601354600254600354611bab9285926001600160a01b03928316929081169116612867565b909250611c37915060403d6040116103ca576103ba818361253e565b90915f611a0f565b90506004548181028115928282041483171561115a5760011c918160011b9182046002141715611c7957808211156119bb5790505f6119bb565b634e487b7160e01b85526011600452602485fd5b634e487b7160e01b84526021600452602484fd5b506002546001600160a01b0316331461197d565b503461016f578060031936011261016f576020610a36612647565b503461016f578060031936011261016f576020601754604051908152f35b5034610366575f36600319011261036657611d07612806565b611d1860ff60185460081c16612455565b611d2d60018060a01b0360035416331461260e565b60ff600954166006811015611ec357611d469015612493565b600a54611e8757600554601354611d6b908290309033906001600160a01b0316612867565b60135460145460405163095ea7b360e01b81526001600160a01b0391821660048201526024810184905291602091839160449183915f91165af18015611e4557611e50575b506014546001600160a01b0316803b1561036657604051636e553f6560e01b815260048101839052306024820152905f908290604490829084905af18015611e4557611e30575b5080600a556040519081527ff1953715a33b9e021c0f2cf12911e8ac25fdb177bf6fc92d1331ae05201fe9f660203392a2610910612720565b611e3d9192505f9061253e565b5f905f611df7565b6040513d5f823e3d90fd5b6020813d602011611e7f575b81611e696020938361253e565b8101031261036657518015158114611db0575f80fd5b3d9150611e5c565b60405162461bcd60e51b815260206004820152601460248201527311195c1bdcda5d08185b1c9958591e481c185a5960621b6044820152606490fd5b634e487b7160e01b5f52602160045260245ffd5b3461036657604036600319011261036657602435801515810361036657611efc612806565b6012546001600160a01b031633036121e357600435601754036121a95760ff600954166006811015611ec3576004036121755760ff19601854166018555f601755611f4f600360ff196009541617600955565b600a549081611f97575b611f915f8060018060a01b036011541660405182602082019163b568e6df60e01b8352336024820152602481526108fe60448261253e565b60015f55005b60145460408051627b8a6760e11b8152600481019490945230602485015290839060449082905f906001600160a01b03165af190815f935f9361214e575b506120ab5750506013546040516370a0823160e01b81523060048201526001600160a01b039091169150602081602481855afa908115611e45575f9161206c575b50805f5160206129045f395f51905f52928160409361204d575b5050600a549082519182526020820152a15b5f600a558080611f59565b600354612065926001600160a01b0390911690612824565b8381612030565b90506020813d6020116120a3575b816120876020938361253e565b8101031261036657515f5160206129045f395f51905f52612016565b3d915061207a565b156120d9576013546003546120d4936001600160a01b0392831693929091169161171c91612576565b612042565b601e820291808304601e148115171561213a5761211b61210060646120d4950480936123b8565b6013546002549193916001600160a01b039081169116612824565b6013546003546001600160a01b039182169391169161171c9190612576565b634e487b7160e01b5f52601160045260245ffd5b90925061216b91935060403d6040116103ca576103ba818361253e565b9290929184611fd5565b60405162461bcd60e51b815260206004820152600c60248201526b139bdd08191a5cdc1d5d195960a21b6044820152606490fd5b60405162461bcd60e51b8152602060048201526012602482015271125b9d985b1a5908191a5cdc1d5d1948125160721b6044820152606490fd5b60405162461bcd60e51b815260206004820152601460248201527327b7363c902234b9b83aba32a932b9b7b63b32b960611b6044820152606490fd5b34610366575f366003190112610366576013546040516001600160a01b039091168152602090f35b34610366575f3660031901126103665761226860ff60185460081c16612455565b6002546001600160a01b031633036122e45760ff600954166006811015611ec3576122939015612493565b6001600e546122a560ff8216156124d0565b60ff191617600e55604051600181527ff28696c0013980f1a2e21252780330dbc380273e8a976b26173a775898db12b560203392a26122e2612720565b005b60405162461bcd60e51b815260206004820152600c60248201526b139bdd081b185b991b1bdc9960a21b6044820152606490fd5b34610366575f36600319011261036657600f546040516001600160a01b039091168152602090f35b34610366575f366003190112610366576020610a366123e3565b34610366575f366003190112610366576010546001600160a01b03168152602090f35b9181601f840112156103665782359167ffffffffffffffff8311610366576020838186019501011161036657565b906006821015611ec35752565b9190820391821161213a57565b81156123cf570490565b634e487b7160e01b5f52601260045260245ffd5b60ff600954166006811015611ec3576001036124515760065480421061244c576007549081421015612444578061241d61242392426123b8565b926123b8565b612710820291808304612710149015171561213a57612441916123c5565b90565b505061271090565b505f90565b5f90565b1561245c57565b60405162461bcd60e51b815260206004820152600f60248201526e139bdd081a5b9a5d1a585b1a5e9959608a1b6044820152606490fd5b1561249a57565b60405162461bcd60e51b815260206004820152600e60248201526d496e76616c69642073746174757360901b6044820152606490fd5b156124d757565b60405162461bcd60e51b815260206004820152600e60248201526d105b1c9958591e481cda59db995960921b6044820152606490fd5b6101e0810190811067ffffffffffffffff82111761252a57604052565b634e487b7160e01b5f52604160045260245ffd5b90601f8019910116810190811067ffffffffffffffff82111761252a57604052565b9190826040910312610366576020825192015190565b9190820180921161213a57565b3d156125bd573d9067ffffffffffffffff821161252a57604051916125b2601f8201601f19166020018461253e565b82523d5f602084013e565b606090565b156125c957565b60405162461bcd60e51b815260206004820152601b60248201527f466163746f7279206e6f74696669636174696f6e206661696c656400000000006044820152606490fd5b1561261557565b60405162461bcd60e51b815260206004820152600a602482015269139bdd081d195b985b9d60b21b6044820152606490fd5b6016548042111561244c576126606201518091426123b8565b0490565b1561266b57565b60405162461bcd60e51b81526020600482015260096024820152684e6f7420706172747960b81b6044820152606490fd5b908060209392818452848401375f828201840152601f01601f1916010190565b9392916020916126d49160408752604087019161269c565b930152565b5f19811461213a5760010190565b600c546126f6600d5482612576565b801561271a57612710820291808304612710149015171561213a57612441916123c5565b50505f90565b600e5460ff811690816127f8575b50806127eb575b61273b57565b600160ff1960095416176009554260065560085462278d0081029080820462278d00149015171561213a576127709042612576565b60075562278d00420180421161213a576016556127b55f8060018060a01b0360115416604051826020820191633a026ab360e21b8352600481526108fe60248261253e565b7f364e9e9426a2310fc3091f22ddad83cfad9593ffe7ca19061498a424fcb6ab77604060065460075482519182526020820152a1565b50600a5460055414612735565b60ff915060081c165f61272e565b60025f54146128155760025f55565b633ee5aeb560e01b5f5260045ffd5b60405163a9059cbb60e01b60208201526001600160a01b039290921660248301526044808301939093529181526128659161286060648361253e565b6128ab565b565b6040516323b872dd60e01b60208201526001600160a01b0392831660248201529290911660448301526064808301939093529181526128659161286060848361253e565b905f602091828151910182855af115611e45575f513d6128fa57506001600160a01b0381163b155b6128da5750565b635274afe760e01b5f9081526001600160a01b0391909116600452602490fd5b600114156128d356fe7220b61b3beec732ec34dcb781a795adfc4cb0f46ccf1287e0586cc5f47fc5b7f0671e5a9833173db8cfdc4c73ca677d0c123c078fd35dacb9cfcd35204d7b09a2646970667358221220eb7c13c4fab879f5cf741ef9f84f6d2e3f7342f700f12e9167d1da859b603f5364736f6c634300081e0033","linkReferences":{}},"methodIdentifiers":{"activeDisputeId()":"47b3f242","agreement()":"7db3a946","applyDisputeResolution(uint256,bool)":"33c4e604","cancel()":"ea8a1af0","checkAutoTerminate()":"8eccc1cd","disputeResolver()":"f5a3f4af","factory()":"c45a0155","getAgreementDetails()":"b4bd7784","getAgreementProgress()":"1ecbf705","getDaysOverdue()":"5d696d23","getPaymentSuccessRate()":"b4bd8de4","initialize(uint256,address,address,uint256,uint256,uint256,address,address,address,address,address,address)":"e8b11730","isPaymentOverdue()":"fb839f00","lastPaymentDate()":"7aeabb39","nextPaymentDue()":"b4198570","payRent()":"a709c4fe","paySecurityDeposit()":"42c63dae","paymentsLockedByDispute()":"df99a766","propertyRegistry()":"26b703a7","raiseDispute(uint8,string,uint256)":"a0e40c6c","signAsLandlord()":"289b5086","signAsTenant()":"73e5be31","tenantPassport()":"17805407","terminateAgreement(string)":"bc831ade","terminateEarly(string)":"62d0c2aa","usdt()":"2f48ab7d","vault()":"fbfa77cf"},"id":53}